{
    "contractName": "Conditions",
    "abi": [
        {
            "anonymous": false,
            "inputs": [
                {
                    "indexed": false,
                    "internalType": "uint256",
                    "name": "output",
                    "type": "uint256"
                }
            ],
            "name": "Print",
            "type": "event"
        },
        {
            "inputs": [],
            "name": "callfoo",
            "outputs": [],
            "stateMutability": "nonpayable",
            "type": "function"
        },
        {
            "inputs": [
                {
                    "internalType": "uint256",
                    "name": "x",
                    "type": "uint256"
                }
            ],
            "name": "foo",
            "outputs": [
                {
                    "internalType": "uint256",
                    "name": "",
                    "type": "uint256"
                }
            ],
            "stateMutability": "pure",
            "type": "function"
        },
        {
            "inputs": [],
            "name": "get",
            "outputs": [
                {
                    "internalType": "uint256",
                    "name": "",
                    "type": "uint256"
                }
            ],
            "stateMutability": "view",
            "type": "function"
        },
        {
            "inputs": [],
            "name": "loop",
            "outputs": [],
            "stateMutability": "pure",
            "type": "function"
        },
        {
            "inputs": [],
            "name": "num",
            "outputs": [
                {
                    "internalType": "uint256",
                    "name": "",
                    "type": "uint256"
                }
            ],
            "stateMutability": "view",
            "type": "function"
        },
        {
            "inputs": [
                {
                    "internalType": "uint256",
                    "name": "_num",
                    "type": "uint256"
                }
            ],
            "name": "set",
            "outputs": [],
            "stateMutability": "nonpayable",
            "type": "function"
        }
    ],
    "bytecode": "608060405234801561001057600080fd5b506101e0806100206000396000f3fe608060405234801561001057600080fd5b50600436106100625760003560e01c80632fbebd38146100675780634e70b1dc1461008c57806360fe47b1146100955780636d4ce63c146100aa578063a92100cb146100b2578063eab248db146100ba575b600080fd5b61007a61007536600461016a565b6100c2565b60405190815260200160405180910390f35b61007a60005481565b6100a86100a336600461016a565b600055565b005b60005461007a565b6100a86100ee565b6100a8610120565b6000600a8210156100d557506000919050565b60148210156100e657506001919050565b506000919050565b60005b600a81101561011d576003811461010b576005811461011d575b8061011581610183565b9150506100f1565b50565b600061012c60036100c2565b90507f24abdb5865df5079dcc5ac590ff6f01d5c16edbc5fab4e195d9febd1114503da8160405161015f91815260200190565b60405180910390a150565b60006020828403121561017c57600080fd5b5035919050565b6000600182016101a357634e487b7160e01b600052601160045260246000fd5b506001019056fea26469706673582212202f4a41d6db8eb3c9efbb1cc1384453d6531d73e3312187a18f60c11921cb83c964736f6c63430008130033",
    "sourcePath": "c:/Users/KISLAY/OneDrive/Desktop/solidity/Conditions.sol",
    "compiler": {
        "name": "solc",
        "version": "0.8.19+commit.7dd6d404"
    },
    "functionHashes": {
        "callfoo()": "eab248db",
        "foo(uint256)": "2fbebd38",
        "get()": "6d4ce63c",
        "loop()": "a92100cb",
        "num()": "4e70b1dc",
        "set(uint256)": "60fe47b1"
    },
    "gasEstimates": {
        "creation": {
            "codeDepositCost": "96000",
            "executionCost": "141",
            "totalCost": "96141"
        },
        "external": {
            "callfoo()": "1382",
            "foo(uint256)": "312",
            "get()": "2324",
            "loop()": "infinite",
            "num()": "2283",
            "set(uint256)": "22334"
        }
    }
}