{
    "contractName": "Variable",
    "abi": [
        {
            "inputs": [],
            "name": "addr",
            "outputs": [
                {
                    "internalType": "address",
                    "name": "",
                    "type": "address"
                }
            ],
            "stateMutability": "view",
            "type": "function"
        },
        {
            "inputs": [],
            "name": "defaultAddress",
            "outputs": [
                {
                    "internalType": "address",
                    "name": "",
                    "type": "address"
                }
            ],
            "stateMutability": "view",
            "type": "function"
        },
        {
            "inputs": [],
            "name": "defaultBool",
            "outputs": [
                {
                    "internalType": "bool",
                    "name": "",
                    "type": "bool"
                }
            ],
            "stateMutability": "view",
            "type": "function"
        },
        {
            "inputs": [],
            "name": "defaultBool2",
            "outputs": [
                {
                    "internalType": "bool",
                    "name": "",
                    "type": "bool"
                }
            ],
            "stateMutability": "view",
            "type": "function"
        },
        {
            "inputs": [],
            "name": "defaultInt",
            "outputs": [
                {
                    "internalType": "int256",
                    "name": "",
                    "type": "int256"
                }
            ],
            "stateMutability": "view",
            "type": "function"
        },
        {
            "inputs": [],
            "name": "defaultUint",
            "outputs": [
                {
                    "internalType": "uint256",
                    "name": "",
                    "type": "uint256"
                }
            ],
            "stateMutability": "view",
            "type": "function"
        },
        {
            "inputs": [],
            "name": "doSomething",
            "outputs": [],
            "stateMutability": "nonpayable",
            "type": "function"
        },
        {
            "inputs": [],
            "name": "i",
            "outputs": [
                {
                    "internalType": "int256",
                    "name": "",
                    "type": "int256"
                }
            ],
            "stateMutability": "view",
            "type": "function"
        },
        {
            "inputs": [],
            "name": "u",
            "outputs": [
                {
                    "internalType": "uint256",
                    "name": "",
                    "type": "uint256"
                }
            ],
            "stateMutability": "view",
            "type": "function"
        },
        {
            "inputs": [],
            "name": "u256",
            "outputs": [
                {
                    "internalType": "uint256",
                    "name": "",
                    "type": "uint256"
                }
            ],
            "stateMutability": "view",
            "type": "function"
        },
        {
            "inputs": [],
            "name": "u8",
            "outputs": [
                {
                    "internalType": "uint8",
                    "name": "",
                    "type": "uint8"
                }
            ],
            "stateMutability": "view",
            "type": "function"
        }
    ],
    "bytecode": "60806040526000805460ff1916607a1790556105b060015561053f600255600b19600355600480546001600160a81b03191673ca35b7d915458ef540ade6068dfe2f44e8fa733c17905534801561005557600080fd5b506101bb806100656000396000f3fe608060405234801561001057600080fd5b50600436106100a95760003560e01c80638269267911610071578063826926791461011a578063975c29721461011c578063ab3a58a314610140578063c6a898c51461015f578063d668f5b514610168578063e5aa3d581461017c57600080fd5b80631570c2cb146100ae578063459b1acf146100ca5780635abe622b146100d35780635c101693146100dc578063767800de14610107575b600080fd5b6100b760055481565b6040519081526020015b60405180910390f35b6100b760015481565b6100b760065481565b6007546100ef906001600160a01b031681565b6040516001600160a01b0390911681526020016100c1565b6004546100ef906001600160a01b031681565b005b60045461013090600160a81b900460ff1681565b60405190151581526020016100c1565b60005461014d9060ff1681565b60405160ff90911681526020016100c1565b6100b760025481565b60045461013090600160a01b900460ff1681565b6100b76003548156fea264697066735822122046900170f64b6014b12781072acef96785d65195682b41a86b1bf6410d5780bc64736f6c63430008130033",
    "sourcePath": "c:/Users/KISLAY/OneDrive/Desktop/solidity/Variable.sol",
    "compiler": {
        "name": "solc",
        "version": "0.8.19+commit.7dd6d404"
    },
    "functionHashes": {
        "addr()": "767800de",
        "defaultAddress()": "5c101693",
        "defaultBool()": "d668f5b5",
        "defaultBool2()": "975c2972",
        "defaultInt()": "5abe622b",
        "defaultUint()": "1570c2cb",
        "doSomething()": "82692679",
        "i()": "e5aa3d58",
        "u()": "c6a898c5",
        "u256()": "459b1acf",
        "u8()": "ab3a58a3"
    },
    "gasEstimates": {
        "creation": {
            "codeDepositCost": "88600",
            "executionCost": "114916",
            "totalCost": "203516"
        },
        "external": {
            "addr()": "2426",
            "defaultAddress()": "2404",
            "defaultBool()": "2415",
            "defaultBool2()": "2349",
            "defaultInt()": "2329",
            "defaultUint()": "2285",
            "doSomething()": "120",
            "i()": "2394",
            "u()": "2350",
            "u256()": "2307",
            "u8()": "2357"
        }
    }
}